:020000040800F2
:10000000800700202902000891210008E91E00084D
:100010008D210008210400083D2B0008000000008D
:10002000000000000000000000000000C1250008E2
:10003000250400080000000095210008C5250008DF
:10004000430200084302000843020008430200087C
:10005000430200084302000843020008430200086C
:10006000430200084302000843020008430200085C
:10007000430200084302000843020008430200084C
:10008000430200084302000843020008430200083C
:100090004302000843020008430200085904000814
:1000A000430200084302000843020008430200081C
:1000B000430200084302000843020008430200080C
:1000C00043020008430200084302000843020008FC
:1000D00043020008430200084302000843020008EC
:1000E00029040008430200084302000843020008F4
:1000F00043020008430200084302000843020008CC
:1001000043020008430200084302000843020008BB
:1001100043020008430200084302000843020008AB
:10012000430200084302000843020008430200089B
:10013000430200084302000843020008430200088B
:10014000430200084302000843020008430200087B
:10015000430200084302000843020008430200086B
:10016000430200084302000843020008430200085B
:1001700043020008430200080000000000000000E5
:10018000430200084302000800F002F800F03CF8C7
:100190000AA090E8000C82448344AAF10107DA45E2
:1001A00001D100F031F8AFF2090EBAE80F0013F0F8
:1001B000010F18BFFB1A43F0010318473C3400003D
:1001C0005C340000103A24BF78C878C1FAD85207CE
:1001D00024BF30C830C144BF04680C6070470000C1
:1001E0000023002400250026103A28BF78C1FBD840
:1001F000520728BF30C148BF0B6070471FB503F0DE
:10020000BDF91FBD10B510BD00F0D0F81146FFF7C5
:10021000F5FF02F095FC00F0EEF803B4FFF7F2FFF3
:1002200003BC00F0F5F80000094880470948004782
:10023000FEE7FEE7FEE7FEE7FEE7FEE7FEE7FEE796
:10024000FEE7FEE704480549054A064B70470000F3
:10025000C9250008890100088001002080070020CE
:10026000800300208003002053EA020C00F0698024
:100270002DE9F04B4FF00006002B1FBFB3FA83F5BA
:1002800003FA05F424FA05F65E4012BF1643B2FAEB
:1002900082F502FA05F4C5F120051EBF22FA05FC1D
:1002A00044EA0C04203556EA044C4FEA144418BFC3
:1002B000641C4FF000084FF00009904271EB030CF2
:1002C00039D3002919BFB1FA81F701FA07F6B0FA5C
:1002D00080F700FA07F6C7F120071EBF20FA07FCD7
:1002E00046EA0C062037B6FBF4FCA7EB0507103FE7
:1002F00007F01F0BCBF120062CFA06F60CFA0BFBCD
:1003000044BFB3460026202FA4BF5E464FF0000B2B
:100310005BEA060C08BF4FF0010B19EB0B0948EB29
:100320000608ABFB027C06FB02CC0BFB03CCC01B1C
:1003300071EB0C01C1E70B46024641464846BDE859
:10034000F08B13B5084318BF4FF0FF300146AFF3F1
:100350000080BDE81C4070474FF0000200B5134616
:1003600094469646203922BFA0E80C50A0E80C50D5
:10037000B1F12001BFF4F7AF090728BFA0E80C5086
:1003800048BF0CC05DF804EB890028BF40F8042B7F
:1003900008BF704748BF20F8022B11F0804F18BFEC
:1003A00000F8012B7047704770477047754600F0A2
:1003B0002BF8AE4605006946534620F007008546F7
:1003C00018B020B5FFF73EFFBDE820404FF0000613
:1003D0004FF000074FF000084FF0000BAC46ACE8C0
:1003E000C009ACE8C009ACE8C009ACE8C00921F01C
:1003F00007018D46704710B50446AFF300802046D4
:10040000BDE81040FFF709BF00487047100000200A
:1004100001491820ABBEFEE726000200704700002D
:10042000FEE700007047000080B54FF4806000F0E8
:100430003FF84FF4006000F03BF84FF4005000F03C
:1004400037F84FF4804000F033F84FF40040BDE837
:10045000804000F02DB8000080B5202000F028F882
:10046000402000F025F8802000F022F84FF4807042
:10047000BDE8804000F01CB8EFF3108072B600BFFA
:10048000FEE70000B0B5044600F00CF9054640F266
:100490000000C2F200000078611C18BF044400BFD5
:1004A00000F000F9401BA042FAD3B0BD7047000035
:1004B00040F21441C4F201010A68024214BF08600C
:1004C0007047FFF7F3BF00002DE9F04F82B00D68D1
:1004D000002D00F0DB8041F6000400F13847C4F63F
:1004E000000407224FEAB726A04208BF0622062EC4
:1004F00038BF4FEAB7224FF0000B002700260092CA
:100500000AE000BF0D68013635FA06F207F102076E
:100510000BF1040B00F0BA80012202FA06FE15EA84
:100520000E08EFD0D1F8049009F0030AAAF10105F2
:10053000022D15D20323826803FA07F5CB68AA437C
:10054000BB401A4382604268C9F3001322EA0E02DC
:10055000B3404FEA460CEC431A43426017E000BF39
:10056000BAF1030F0ED1C56AC9F3C00225EA0E0520
:10057000B2402A434FF0030AC2620AFA07F2D44398
:10058000BC4625E0032202FA07F5EC43BC46C268EC
:100590008B68224003FA0CF31A43BAF1020FC260CF
:1005A00016D16FF0030202EA560202440BF01C055A
:1005B0000F23D2F820E003FA05F90B692EEA090EA1
:1005C000AB4043EA0E031362D1F8049009F0030A2A
:1005D00002680AFA0CF322401A4319F4403F026001
:1005E00090D041F26003C4F202031A6840F2004E58
:1005F00042F001021A601A68C4F2010E02F0010210
:100600000192019A26F003024FF608497244CFF690
:10061000FF7952F809C00BF00C050F23009CAB408A
:100620002CEA030304FA05F52B4342F80930DEF8FF
:1006300008204B6842EA080540F20C4CDC0258BF27
:1006400022EA0805CEF80850C4F2010CDCF80020BC
:100650009C0242EA080558BF22EA0805CCF800507F
:10066000DEF804209C0342EA080558BF22EA080588
:10067000CEF80450DEF80020DB0342EA080558BF3C
:1006800022EA0805CEF800503CE700BF02B000F0B7
:1006900000B830BCBDE8C08F1823002A08BF28234B
:1006A000C150704740F27810C2F2000000687047F5
:1006B00090F84120202A03D190F84020012A01D14E
:1006C00002207047242280F841200268136823F03A
:1006D00001031360136823F48053136013681943F4
:1006E0001160116841F001011160202180F8411072
:1006F000002180F8401008467047000090F8412023
:10070000202A03D190F84020012A01D1022070470D
:10071000242280F841200268136823F0010313604B
:10072000136823F4706343EA01211160116841F0FA
:1007300001011160202180F84110002180F8401053
:1007400008467047002804BF0120704710B50446D2
:1007500090F8410028B9002084F84000204600F0BD
:100760004DFA242084F8410094E80910E2680168F9
:10077000012A21F00101016023F0706101618168AB
:1007800021F40041816003D14CF40041816007E015
:100790004CF40441022A816004BF4FF400614160BF
:1007A000416804F1100C41F0007141F400414160D6
:1007B000C16821F40041C1609CE80E10114341EA78
:1007C0000321C160216A41EA0C010160016841F026
:1007D0000101016000202021606484F84110206341
:1007E00084F8420010BD00002DE9F04F81B00446AE
:1007F00090F84100202803D194F84000012803D14B
:10080000022001B000F0F0B801201F4616468846CD
:1008100084F84000FFF746FF216805468A69120404
:100820000AD500BFFFF73EFF401B192800F2CC801D
:10083000216888690004F5D4222084F84100102042
:1008400084F8420000206064666267856063628DA0
:1008500049F6000040F20009CFF60040B2F5807F73
:10086000C0F2FF190AD351F8042F43466FF39F23B8
:1008700002EA000709F51056FF220CE0628D43469C
:1008800051F8046F6FF39F23D7B243EA074706EA94
:10089000000309F592363B4333430B602285618D9B
:1008A0000A9F002960D06FF39F2807F1010B4FF0DA
:1008B000FF0A00F5806610E0618D218550F8042F55
:1008C000C9B2324042EA01414FF0007241EA0801E8
:1008D00011430160608D002846D0204639462A46E3
:1008E00001F0B0FB00285BD12068616A406A0870A3
:1008F000606A218D01306062481E2085618D01395A
:100900006185618D0029E5D00004E3D1206881690B
:1009100009060FD4BBF1000F18D0002F52D000BF32
:10092000FFF7C0FE401BB8424ED820688169090617
:10093000F6D500BF618DB1F5807FBDD3A4F828A0A6
:1009400050F8041F4A463140C0E700BF81690906DC
:10095000F0D4816909065CBF81695FEA0161E9D46D
:1009600081690906F2D5E5E787B100BF2068816992
:10097000890619D4204639462A4601F0B7FA78B9D3
:10098000FFF790FE401BB842F0D91DE02068816956
:10099000890609D4204600212A4601F0A7FA88B129
:1009A000012001B000F020B82021C16142684EF65C
:1009B0000003CFF600631A404260002084F8411023
:1009C0000AE000BFFFF76EFE606C40F0200060643C
:1009D000202084F841000120002184F8421084F88E
:1009E000401001B000F000B830BCBDE8C08F00007E
:1009F0002DE9F04F81B0044690F84100202803D142
:100A000094F84000012803D1022001B000F0F2B8B0
:100A100001201F461646884684F84000FFF742FE34
:100A2000216805468A6912040AD500BFFFF73AFE1D
:100A3000401B192800F2CE80216888690004F5D493
:100A4000212084F84100102084F8420000206064D6
:100A5000666267856063608D49F6000C40F20009AC
:100A6000CFF6004CB0F5807FC0F2FF190CD30B46D7
:100A700053F8040F47466FF39F2700EA0C0609F569
:100A80000050FF220EE000BF628D0B46404653F837
:100A9000047F6FF39F20D6B240EA064607EA0C07B0
:100AA00009F590303743384318602285608D0A9FDE
:100AB00000285FD06FF39F2807F1010B4FF0FF0A6A
:100AC0000CF5806612E000BF628D0846228550F862
:100AD000043FD2B2334043EA02424FF0007342EA8D
:100AE00008021A430260608D002843D02046394630
:100AF0002A4601F007FB002857D1606A216810F8E8
:100B0000012B8A626062608D01386085208D01381A
:100B10002085628D002AE6D00004E4D188690006B1
:100B20000ED4BBF1000F17D0002F51D0FFF7BAFD44
:100B3000401BB8424ED8216888690006F6D500BF30
:100B4000608DB0F5807FBFD3A4F828A0084650F888
:100B5000042F4B463240C2E788690006F0D488690A
:100B600000065CBF88695FEA0060E9D48869000616
:100B7000F2D5E5E787B100BF21688869800619D4FE
:100B8000204639462A4601F0B1F970B9FFF78AFDCF
:100B9000401BB842F0D91DE0886980060AD420467F
:100BA00000212A4601F0A2F990B1012001B000F025
:100BB00021B800BF2020C8614A684EF60003CFF676
:100BC00000631A404A6084F8410000200AE000BF38
:100BD000FFF768FD606C40F020006064202084F81E
:100BE00041000120002184F8421084F8401001B037
:100BF00000F000B830BCBDE8C08F000010B5A8B050
:100C0000044601A804308421FFF7A6FB206845F2C2
:100C10000041C4F20001884202D028B010BD00BFDC
:100C20004020019001A800F02BF9002818BFFFF721
:100C300023FC41F24C04C4F20204206823A940F0D2
:100C400002002060206800F00200239023984FF4F7
:100C5000407023901220249000202590032026909D
:100C60000420279040F20040C4F60000FFF72CFC5F
:100C7000E06840F40010E060E06800F400100090CC
:100C8000009828B010BD000040F2000040F278113A
:100C9000C2F20000C2F2000100780A681044086045
:100CA0007047000080B5032000F08CF8002000F0B1
:100CB00009F800281CBF012080BD00F029F80020A1
:100CC00080BD000070B540F20006C2F20006317827
:100CD000E1B1044640F20800C2F200004FF47A721B
:100CE0000068B2FBF1F1B0FBF1F001F041F80F2C1C
:100CF0004FF0010508D838B94FF0FF3021460022E7
:100D0000002500F033F87460284670BD012070BDE6
:100D100082B041F25800C4F20200816841F0010142
:100D20008160816801F0010101910199016841F040
:100D300080510160006800F080500090009802B07F
:100D400070470000002848BF7047C1B200F01F0084
:100D5000012202FA00F04EF20012CEF2000242EA44
:100D6000D10121F0030108607047000010B54EF674
:100D70000C5CCEF2000CDCF80030C3F3022E8EF0D7
:100D80000704042C28BF0424BEF103034FF0FF3EE8
:100D90000EFA04F438BF0023A14399400EFA03F37E
:100DA0009A43114300F00F0200F160430901043A35
:100DB00003F564436244002848BF02F10C03197034
:100DC00010BD00004EF60C51CEF200010A684FF63D
:100DD000FF031A4060F30A2242F0806040F0FD7089
:100DE0000860704747F20001C4F200010A68B0F5DC
:100DF000007F02F4C06031D1B0F5007F2CD00868CC
:100E0000012262F34A20086040F20800C2F20000AA
:100E10000068322250434DF68362C4F21B32A0FBBD
:100E20000202900C4A69520511D5421C0FD04A6942
:100E300052050CD558B14A69520508D5012806D08B
:100E40004A69520503D50228A0F10400EAD1486995
:100E5000400544BF0320704700207047B0F5806F05
:100E6000FAD00868022262F34A2008600020704726
:100E700047F20000C4F20000006800F4C060704750
:100E80002DE9F04782B00446407841F28807000718
:100E9000C4F2020730D5606E4FEAB05103290BD877
:100EA000DFE801F002101C25201D002101F074F97B
:100EB000064670B91AE000BF01266078C0060BD55F
:100EC0001EE000BF04F12000002101F01DFA0646DB
:100ED00060B16078C00613D4B2464EE057F87C1C6F
:100EE00041F4803147F87C1C01E000BF606E396836
:100EF00021F440010843386000266078C006EBD535
:100F0000A06E4FEA306003280AD8B246DFE800F04E
:100F100002102216201D002101F03EF90DE000BF55
:100F20004FF0010A4FF00108A07880070DD528E0A6
:100F300004F12000002101F0E7F98246BAF1000F28
:100F4000D04612D0A07880071BD4C2462168C807BB
:100F500068D088E057F87C0CB24640F4803047F8FF
:100F60007C0CBAF1000FD046ECD13868A16E20F0AD
:100F7000407008434FF0000A3860B046A078800700
:100F8000E3D557F8300C10F080590BD157F8300CDE
:100F900040F0805047F8300C57F8300C00F080508B
:100FA0000190019847F20005C4F20005286840F45A
:100FB00080702860FFF776FB064600BF2868C005F2
:100FC00008D4FFF76FFB801B0228F7D94FF0030A04
:100FD00022E000BFBAF1000F1ED1B86810F44070D3
:100FE00012D0D4F8841088420BD0B868B96820F4C5
:100FF000407041F48031B960B96821F48031B96042
:10100000B860C00740F01C81B868D4F8841020F4A0
:1010100040700843C246B860B9F1000F1AD0216889
:10102000C80720D1880726D448072CD4080732D413
:10103000C80638D488063ED4880544D448054AD426
:10104000480650D4080656D4C8055CD4880462D437
:1010500073E000BF57F8300C20F0805047F8300C98
:101060002168C807DED03868A26B20F00300104367
:1010700038608807D8D53868E26B20F00C00104340
:1010800038604807D2D53868226C20F03000104311
:1010900038600807CCD53868626C20F0C000104377
:1010A0003860C806C6D53868A26C20F4407010437A
:1010B00038608806C0D53868E26C20F44060104380
:1010C00038608805BAD53868E26D20F440201043B6
:1010D00038604805B4D53868226E20F440101043BB
:1010E00038604806AED53868226D20F44050104371
:1010F00038600806A8D53868626D20F44040104377
:101100003860C805A2D53868A26D20F4403010437D
:101110003860880411D53A68E06E22F040620243DC
:10112000B0F1806F3A601DD0B0F1006F05D157F873
:101130007C0C40F4801047F87C0C080326D53A68F4
:10114000206F22F040620243B0F1806F3A6015D008
:10115000B0F1006F1AD157F87C0C40F4801047F8BA
:101160007C0C13E0201D012101F016F821680028F5
:1011700018BF82460803E2D408E000BF201D012109
:1011800001F00AF82168002818BF8246480311D5EB
:101190003A68606F22F040620243B0F1806F3A60BB
:1011A0001CD0B0F1006F05D157F87C0C40F48010D2
:1011B00047F87C0C480425D53968A06F21F04051D0
:1011C0000143B0F1005F396014D0B0F1805F19D1F4
:1011D000201D022100F0E0FF11E000BF201D0121D1
:1011E00000F0DAFF2168002818BF82464804E3D4E3
:1011F00008E000BF04F12000022101F085F800287A
:1012000018BF82462068010406D4C0030CD450469F
:1012100002B0BDE8F08700BF3968E26F21F080417D
:1012200011433960C003F2D53868D4F8801020F03B
:10123000004008433860504602B0BDE8F08700BF68
:10124000FFF730FA064641F288354FF0030A00BF37
:10125000B86880073FF5D8AEFFF724FA801BA84294
:10126000F6D9D9E62DE9F04381B000286BD042F2DF
:101270000008C4F202080446D8F800000D4600F049
:10128000070088420CD2D8F8000020F0070028435D
:10129000C8F80000D8F8000000F00700A84252D1BA
:1012A000206841F2080910F00201C4F202090DD0D1
:1012B000A268D9F8003003F0F0039A4206D9D9F8B1
:1012C000003023F0F0031A43C9F80020C2072DD1E3
:1012D00069B1A168D9F8002002F0F002914206D26B
:1012E000D9F8002022F0F0021143C9F80010D8F814
:1012F000001001F00701A9420CD9D8F8001021F024
:1013000007012943C8F80010D8F8001001F00701C0
:10131000A94218D141071BD4000723D4D9F80000F3
:10132000D9F8041010F00C002CD131E060680028CE
:101330005ED0022800F07E80032840F0818059F8BA
:10134000081C890158D4012001B0BDE8F08300BF1A
:10135000D9F80010E26821F4E0611143C9F80010E7
:101360000007DBD5D9F80000216920F4605040EA7D
:10137000C100C9F80000D9F80000D9F8041010F035
:101380000C0005D00C2829D101F00301012925D139
:1013900059F8081C090703D4D9F88C10090A02E08F
:1013A00059F8081C090943F2B85201F00F01C0F6C0
:1013B000000252F8211000280A4618BF00220C280B
:1013C00071D1D9F8040000F00300022846D00328A8
:1013D00004BF41F20021C0F27A0143E0042857D053
:1013E00008285BD141F20022C0F27A025BE000BF24
:1013F00059F8081C8907A6D5D9F8001021F0030177
:101400000843C9F80000FFF74DF9064641F2883756
:10141000D9F80000616800F00C00B0EB810F15D026
:10142000FFF740F9801BB842F2D9032001B0BDE8B4
:10143000F08300BF59F8081C89037FF584AFDBE710
:1014400059F8081C49057FF57EAFD5E7206800F004
:10145000020100297FF43DAF49E700BF42F200419D
:10146000C0F2F401D9F80400D9F80420C0F3021046
:10147000C2F306225143D9F804200130B1FBF0F049
:10148000C2F34161022202EB4101B0FBF1F20AE03A
:1014900042F20042C0F2F40205E000BF0022002147
:1014A0000C283FF48EAFD9F8000043F2A051C0F3EE
:1014B0000310C0F60001085C00F01F0022FA00F1E2
:1014C00040F20400C2F2000040F208020068C2F2DA
:1014D0000002116001B0BDE8F043FFF7F3BB00006C
:1014E00040F2080041F20801C2F20000C4F2020119
:1014F0000068096843F2B052C1F30221C0F600024D
:10150000515C01F01F01C8407047000040F2080024
:1015100041F20801C2F20000C4F202010068096849
:1015200043F2B052C1F3C221C0F60002515C01F097
:101530001F01C8407047000041F20C01C4F20201D3
:1015400051F8040C10F00C02086805D00C2A29D1BF
:1015500000F00300012825D151F80C0C000703D43A
:10156000D1F88800000A02E051F80C0C000943F29F
:10157000B85300F00F00C0F6000353F82030002AE3
:10158000184618BF00200C2A18BF7047086800F0E2
:101590000300022810D0032804BF41F20023C0F248
:1015A0007A030DE0042A1FD0082A23D141F200203B
:1015B000C0F27A00704700BF42F20043C0F2F40369
:1015C00008680A68C0F30210C2F3062209680130F5
:1015D0005A43B2FBF0F0C1F34161022202EB410138
:1015E000B0FBF1F0704700BF42F20040C0F2F400DF
:1015F000704700BF00200023C5E700002DE9F0433D
:1016000083B0002800F0068341F200060446C4F2CD
:101610000206B068F168227800F00C09D00601F0EB
:1016200003081DD42078C00700F08180B9F1080FAD
:1016300076D0B9F10C0F08BFB8F1030F70D0606815
:10164000B0F5803F07D0B0F5A02F40F01982306888
:1016500040F480203060306840F4803030601AE21E
:10166000B9F1000F1ED0B9F10C0F08BFB8F1010F8E
:1016700018D0A1693068002900F0AE8140F0010067
:101680003060FFF70FF805463068800700F1B6813B
:10169000FFF708F8401B02284FF00300F4D903B00D
:1016A000BDE8F0833068800703D5A069002800F00A
:1016B000B182256A3068000700F11E81D6F89400D7
:1016C000000900F0F000854200F21C813068B9F199
:1016D000000F40F008003060306820F0F00040EA71
:1016E000050030607068E16920F47F4040EA012025
:1016F000706040F07D82B06DC00000F11982B06D65
:1017000040F08050B065B06D00F0805002900298BB
:10171000FFF7AEFBB16D21F08051B1650AE200BF69
:101720003068800303D56068002800F07382207859
:1017300080072DD5B9F1040F1CD0B9F10C0F08BFEB
:10174000B8F1020F16D0E1683068002900F0B281CC
:1017500040F480703060FEF7A5FF05463068400514
:101760000FD4FEF79FFF401B02284FF00300F5D96E
:1017700095E700BF3068400503D5E068002800F019
:1017800049827068216920F0F85040EA0160706079
:10179000207800075ED42078400771D4A06A002822
:1017A00000F0E282022840F0DF80F068E16A00F099
:1017B00003028A4240F0F080226B6FF00F0300F0CA
:1017C000700103EB0212914240F0E680616B00F47D
:1017D000FE42B2EB012F40F0DF80A16B00F400323B
:1017E000073918BF01218A4240F0D680E26B0023FE
:1017F000CFF6E07303EA025200F4C001A2F5001232
:10180000914240F0C980216C4FF07E4202EA0161B2
:1018100000F0C06001F17E41884240F0BD80306838
:10182000800100F1A182306840F080703060F06883
:1018300040F08070F060FEF735FF044630688001AC
:1018400000F19282FEF72EFF001B02284FF00300EA
:10185000F4D924E76169D6F8940000296ED040F0ED
:101860000100C6F89400FEF71DFF0546D6F8940067
:10187000800790D4FEF716FF401B0228F6D9FBE044
:10188000B06D10F0805808D1B06D40F08050B06558
:10189000B06D00F080500090009847F20007C4F24D
:1018A00000073868C00513D4386840F48070386089
:1018B000FEF7F8FE054600BF3868C00508D4FEF7FD
:1018C000F1FE401B02284FF00300F5D9E7E600BF08
:1018D000A068012808D0052840F0B080D6F8900014
:1018E00040F00400C6F89000D6F8900040F00100E7
:1018F000C6F89000B1E000BF306800F0F00085420B
:101900007FF6E4AEB06DC00000F18A80B06D40F0AB
:101910008050B065B06D00F0805001900198FFF7E5
:10192000A7FAB16D21F08051B165B0F5007F00F0EC
:101930007D80802D40F2D0800320D8E020F001008F
:10194000C6F89400FEF7AEFE054600BFD6F8940038
:1019500080077FF520AFFEF7A5FE401B02284FF061
:101960000300F3D99BE600BFB9F10C0F00F05281E0
:10197000306820F080703060FEF794FE044600BFAF
:101980003068800140F1E480FEF78CFE001B0228E5
:101990004FF00300F4D982E6B9F10C0F00F03A8160
:1019A000306840015CBF30685FEAC00000F13281FE
:1019B000306820F080703060FEF774FE05463068B5
:1019C000800140F18F81FEF76DFE401B02284FF031
:1019D0000300F4D963E600BF20F001003060FEF799
:1019E00061FE0546306880077FF51CAEFEF75AFEA3
:1019F000401B02284FF00300F4D950E6306840F055
:101A0000080030603068D4E9072120F0F000084376
:101A10003060706820F47F4040EA0220706001E688
:101A2000FFF726FAB0F5007F7FF483AF812D5DD3F9
:101A30000120A02D88BF022059E000BFD6F89010E9
:101A4000002821F00101C6F89010D6F8901021F07E
:101A50000401C6F8901000F08780FEF723FE0546CB
:101A600041F28837D6F89000800700F18F80FEF7AA
:101A700019FE401BB842F5D9032003B0BDE8F0833E
:101A80003168002821F480313160316821F48021EF
:101A9000316000F08580FEF705FE05463068800362
:101AA0003FF545AEFEF7FEFD401B64284FF00300F6
:101AB000F4D9F4E520F480703060FEF7F3FD0546BC
:101AC000306840057FF564AEFEF7ECFD401B022850
:101AD0004FF00300F4D9E2E5A5F17000B0FA80F010
:101AE0004009802D08BF022001E000BF002042F223
:101AF0000001C4F202010A6822F0070202440A60EF
:101B0000096801F00701814240F08480306840F0AC
:101B1000080030603068D4E9072120F0F000084365
:101B20003060706820F47F4040EA022070605FE01F
:101B3000FFF79EF9B0F5007F06D1812D40D301203B
:101B4000A02D88BF022045E0802D3BD9032041E035
:101B5000F0684FF6FC71CFF6EE610840F0600020AF
:101B600003B0BDE8F08300BFFEF79CFD054641F2DF
:101B70008837D6F89000800708D5FEF793FD401B04
:101B8000B8424FF00300F4D989E500BFB8F1000F67
:101B90007FF404AEB06D20F08050B065FEE500BF6C
:101BA000FEF780FD0546306880037FF5C0ADFEF787
:101BB00079FD401B64284FF00300F4D96FE500BFA6
:101BC000002007E0A5F17000B0FA80F04009802DF8
:101BD00008BF022042F20001C4F202010A6822F0AA
:101BE000070202440A60096801F00701814211D12D
:101BF000B068F16810F00C0005D00C282AD101F073
:101C00000301012926D13168090707D4D6F89410B9
:101C1000090A05E0012003B0BDE8F0833168090935
:101C200043F2B85201F00F01C0F6000252F8211041
:101C300000280A4618BF00220C2837D1F06800F0AF
:101C40000300022810D0032804BF41F20021C0F293
:101C50007A010DE004281FD0082823D141F2002288
:101C6000C0F27A0222E000BF42F20041C0F2F40169
:101C7000F068F268C0F30210C2F306225143F26822
:101C80000130B1FBF0F0C2F34161022202EB4101ED
:101C9000B0FBF1F20AE000BF42F20042C0F2F402EF
:101CA00004E000BF002200210C28C7D0B06843F236
:101CB000A051C0F30310C0F60001085C00F01F0043
:101CC00022FA00F140F20400C2F2000040F20802E1
:101CD0000068C2F200021160FEF7F4FF00287FF4F2
:101CE000DEAC9FE4F06848F28C01CFF69D1104F160
:101CF0002C0700EA010C8ECFD4E90F546FF00F00CF
:101D000040F2000E00EB0210CFF6E07E41EA0C013B
:101D10000EEA05554FF07E420843A5F5001502EA8C
:101D2000046240EA032002F17E420EF5F0142843DB
:101D300004EA473710433843F060306840F0807061
:101D40003060F06840F08070F060FEF7ABFC044655
:101D50003068800108D4FEF7A5FC001B02284FF074
:101D60000300F5D99BE400BF002003B0BDE8F08379
:101D7000411E0020B0EB116F1CBF012070474EF2D6
:101D80001002CEF2000251604EF62351CEF2000155
:101D9000F0230B700721906011607047B0B582B0DE
:101DA000A0B10446806F28B9002084F87400204652
:101DB00000F056F82420A0672068016821F0010196
:101DC0000160204600F07EFC012803D1012002B012
:101DD000B0BD00BF606A10B1204600F0FFFB206874
:101DE000416821F490414160816821F02A018160BD
:101DF000016841F0010101600020C4F88000FEF795
:101E000051FC216805460A6812070CD56FF07E4C1C
:101E100020464FF4001100222B46CDF800C000F000
:101E200085FD78B92168086840070FD56FF07E4CB2
:101E300020464FF4800100222B46CDF800C000F070
:101E400075FD18B1032002B0B0BD00BF2020A0670F
:101E5000E0670020206684F8740002B0B0BD000086
:101E600010B5A8B0044601A804308421FEF774FA26
:101E7000206843F60001C4F20101884202D028B074
:101E800010BD00BF0120019001A8FEF7F9FF002856
:101E900018BFFEF7F1FA41F24C00C4F202004169AA
:101EA00041F480414161416901F4804123912399CA
:101EB000016841F002010160006823A900F00200FE
:101EC00023902398C0202390022024900020259066
:101ED000032026900720279040F20040C4F600001F
:101EE000FEF7F2FA28B010BDFEE700002DE9F0433E
:101EF00081B0036804469869C00605D4002000211B
:101F00009A69D70560D465E01020D8619869800689
:101F100053D48846481C46D016464FF02009002569
:101F200006E000BF0027986900F02000384335D153
:101F3000FEF7B8FB2368B8F1000F02D0801B4045C4
:101F4000F0D9596894F842009A6912040CD511F43A
:101F5000804109D1202807D0586840F4804058605B
:101F6000FEF7A0FB236806469869002702E000BF41
:101F7000236898698006D6D4FEF794FB801B1A2844
:101F8000F6D3606C012740F02000606484F8419033
:101F900084F8425084F84050EAE700BF7FB90CE073
:101FA0009869800609D49869800606D498698006E5
:101FB0005CBF98695FEA8060F2D52020D86101217A
:101FC00004209A69D70505D54FF4807140F00100CF
:101FD000D9610121570507D492050BD479B90020A6
:101FE00001B0BDE8F08300BF08304FF48061920576
:101FF000D96104D540F002004FF40071D9619969AC
:10200000890744BF002199629969C90703D1996979
:1020100041F00101996159684EF60002CFF6006265
:1020200011405960616C08436064202084F84100CD
:10203000002084F8420084F84000012001B0BDE88F
:10204000F083000070B515460446A9B10E4600BFE6
:102050002068806940071DD4204631462A46FFF794
:1020600045FFA8B920688169890627D4FEF71AFBC5
:10207000401BB042ECD915E020688069400744BF9E
:10208000002070BD204600212A46FFF72FFF18B11F
:10209000012070BD002070BD2068816989060DD4C3
:1020A000FEF700FB606C40F020006064202084F8A4
:1020B0004100002084F84000012070BD816949077B
:1020C00004D5218D00291CBF002070BD82694EF609
:1020D0000006D2064FF0000242BF1022C261042265
:1020E00062642022C2614368CFF60066002133405B
:1020F000436084F8412084F84210002084F84000B6
:10210000012070BD70B5044600688069800710D456
:1021100015460E4611B3701C17D100BF20464FF074
:10212000FF312A46FFF7E2FEF0B920688069800798
:10213000F4D5002070BD00BFFEF7B4FA401BB042DA
:1021400016D8206880698007F3D4204631462A4695
:10215000FFF7CCFE0028EFD006E000BF20460021AC
:102160002A46FFF7C3FE08B1012070BDFEF79AFAB8
:10217000606C40F020006064202084F84100002062
:1021800084F8420084F84000012070BDFEE70000A2
:10219000FEE7000070470000F0B581B041F2000793
:1021A000C4F20207FA680D469107044614D0F86895
:1021B000216800F0030088424FF0010040F0A18048
:1021C000002900F09E80F8686168C0F302100130B9
:1021D000884232D134E000BF206803280CD00228A6
:1021E00016D0012829D13968012211F0020182EAB2
:1021F000510116D120E000BF3968890310D4396835
:10220000012211F4802182EA91410AD114E000BF39
:102210003968012211F4806182EA912101D10BE039
:102220000021FA6863686FF00F0622F0730206EB74
:1022300003131A431043F86011B1012001B0F0BD3F
:10224000386820F080603860FEF72CFA064600BF40
:102250003868000106D5FEF725FA801B0228F7D959
:1022600046E000BF012D0FD005BB386948F2FF01E1
:10227000CFF6FD710840D4E902120023CFF6FE73B9
:1022800003EA423220E000BF48F2FF013869CFF68E
:10229000FF112269002301F1B461CFF6E073084019
:1022A000A16803EA0252A2F500120DE0386948F273
:1022B000FF016269CFF6FF114FF07E430840A1682D
:1022C00003EA026202F17E4240EA012010433861D3
:1022D000386840F080603860FEF7E4F9054600BFDA
:1022E0003868000108D4FEF7DDF9401B0228F7D951
:1022F000032001B0F0BD00BFA0693969084338610F
:10230000002001B0F0BD0000F0B581B041F200073F
:10231000C4F20207FA680D469107044614D0F86823
:10232000216800F0030088424FF0010040F08D80EA
:10233000002900F08A80F8686168C0F3021001305B
:10234000884219D136E000BF2068032818D002283F
:102350000AD0012810D13968012211F0020182EA65
:10236000510108D019E000BF3968012211F48061E1
:1023700082EA912111D1E9B1012001B0F0BD00BF85
:102380003968890308D43968012211F4802182EA6E
:102390009141F0D001E000BF0021FA6863686FF05E
:1023A0000F0622F0730206EB03131A431043F86082
:1023B0000029E1D1386820F080503860FEF772F9CA
:1023C000064600BF3868800006D5FEF76BF9801B13
:1023D0000228F7D930E000BF7969A0684FEA0020F1
:1023E00065B148F2FF02CFF6FF12114022694FF0AB
:1023F0007E4303EA026202F17E420AE048F2FF02F3
:10240000CFF6FD721140E2680023CFF6FE7303EAB7
:102410004232084310437861386840F08050386099
:10242000FEF740F9054600BF3868800008D4FEF783
:1024300039F9401B0228F7D9032001B0F0BD00BFD5
:102440006069796908437861002001B0F0BD00003F
:102450002DE9F04387B040F2EC50ADF814004BF694
:10246000E40040F2A004CFF6FF70C2F200040025A1
:10247000ADF81A004FF4FA770DF11A022046C42184
:1024800002238DF81050CDE902558DF81850ADF8A3
:1024900016500097FEF7ACFA0120FDF7F3FF0DF19F
:1024A00016022046C42103230097FEF79DF99DF8EC
:1024B00016009DF8171060F30A2141BB40F2A004FA
:1024C0004BF6E409C2F200040DF11A080DF11606EC
:1024D0002046C42142460223ADF81A908DF81850C8
:1024E000ADF816500097FEF783FA0120FDF7CAFFFA
:1024F0002046C421324603230097FEF775F99DF864
:1025000016009DF8171060F30A210029E0D040F270
:10251000A004C2F2000405AA2046C42102230097A9
:10252000FEF766FA0120FDF7ADFF02AA2046C4219E
:1025300009230097FEF758F940F270069DF809004C
:10254000C2F200069DF80A103073BDF80B00317618
:1025500040BAAF219DF80D709DF81080484300F0FF
:1025600009FE9FED130B54EC105B2A46234600F046
:1025700019FE9FED110B53EC102B00F053FD00F0F2
:102580001FFD7061BDF80E00642140BA4843B77664
:1025900000F0F0FD2A46234600F004FE00F010FD96
:1025A000306186F8198007B0BDE8F08300BF00BF36
:1025B000000000000000F03E00000000008046C067
:1025C00070470000FEF760BB4EF68850CEF2000068
:1025D000016841F4700101607047000080B5416AF4
:1025E000CA070DD18A0716D44A071FD40A0728D470
:1025F000CA0631D48A063AD44A0658D542E000BF0A
:102600000268D0F828C0536823F4003343EA0C036F
:1026100053608A07E8D50268D0F82CC0536823F4C9
:10262000803343EA0C0353604A07DFD50268D0F8D1
:1026300030C0536823F4802343EA0C0353600A0735
:10264000D6D50268D0F834C0536823F4004343EA77
:102650000C035360CA06CDD50268D0F838C0936821
:1026600023F4805343EA0C0393608A06C4D50268BE
:10267000D0F83CC0936823F4005343EA0C03936002
:102680004A0614D50268D0F840C05368BCF5801FD4
:1026900023F4801343EA0C03536008D1D2F804C03A
:1026A000D0F844E02CF4C00343EA0E03536009065B
:1026B00058BF80BD0168806C4A6822F40022104334
:1026C000486080BDB0B5054605F108041ECC006821
:1026D000194341EA0403D5F81CE0046846F6F311F7
:1026E000CEF6FF712140194341EA0E0101604168B5
:1026F00048F2000C21F4405111434160AA69C4F230
:10270000000C60451CBF296A0A438168102321F42C
:1027100030611143816044F6FF71C4F200018842C8
:1027200018DC44F20041C4F20001884228D044F68B
:102730000001C4F2000188422AD044F60041C4F2EC
:102740000001884242D141F28801C4F202010968C5
:102750008B0933E045F20001C4F2000188421FD02A
:10276000604525D043F60001C4F2010188422DD115
:1027700041F28801C4F202010B6868A222E000BFA6
:1027800041F28801C4F2020109688B0816E000BF1B
:1027900041F28801C4F2020109680B090EE000BF92
:1027A00041F28801C4F2020109680B0A06E000BF89
:1027B00041F28801C4F2020109688B0A43F2E8522F
:1027C000C0F6000203F0030152F82130604542F2E6
:1027D0000040C0F2F40015D0BEF5004F22D1082B06
:1027E0004FF0010100F29580DFE803F0065460939A
:1027F000589393935E0000BFFEF772FE002855D1F8
:102800004FE000BF082B4FF0010100F28280DFE8AB
:1028100003F0058023801B8080802100FEF760FE8E
:10282000D0B914E0082B4FF0010100F27280DFE80C
:1028300003F005535F70577070705D00FEF750FE37
:10284000002855D14FE000BFFEF776FE20B90021E9
:102850005FE000BF4FF400406A6802EB420188422B
:102860004FF0010155D31303984252D8010E0002D4
:1028700010EB520041F100010023FDF7F5FC4FF68B
:102880000052A0F54071C0F20F0291423BD30121EA
:102890003FE000BFFEF73AFE40B902E0FEF74CFE13
:1028A00020B9002135E000BF4FF4004069684A08B4
:1028B00002EB4000B0FBF1F04FF6EF72A0F1100117
:1028C000914207D84FF6F0710140C0F3420008442E
:1028D00019E000BF01211CE0FEF718FE40B902E03C
:1028E000FEF72AFE20B9002113E000BF4FF400409C
:1028F00069684FF6EF7200EB5100B0FBF1F0A0F108
:102900001001914204D82968C860002101E000BF8D
:102910000121002208466A66AA66B0BD01000000D7
:102920000400000002000000080000002DE9F04152
:10293000044600681546C2690E461140891BB1FA6B
:1029400081F14909A94240F0A080DDF81880B8F172
:10295000000F29D018F1010140F08080C169314099
:10296000891BB1FA81F14909A94240F08E80C16901
:102970003140891BB1FA81F14909A94240F08580B3
:10298000C1693140891BB1FA81F14909A9427CD161
:10299000C1693140891BB1FA81F14909A942DDD0F1
:1029A0000020BDE8F08100BFFDF77CFE206850E804
:1029B000000F216820F4D07041E80002BAB320680B
:1029C00050E8000F216820F4D07041E8000272B393
:1029D000206850E8000F216820F4D07041E8000220
:1029E0002AB3206850E8000F216820F4D07041E835
:1029F0000002002ADAD11AE0206850E8020F2168AC
:102A000020F0010041E80202DAB1206850E8020F2C
:102A1000216820F0010041E8020292B1206850E8EC
:102A2000020F216820F0010041E802024AB120684B
:102A300050E8020F216820F0010041E80202002A5C
:102A4000DAD12020A06704F17C0020210160002061
:102A500084F874000320BDE8F08100BF1F4600BF6A
:102A6000FDF720FEC01B4045A0D82068016849073B
:102A700044BFC1695FEA01510AD4C0693040801B7C
:102A8000B0FA80F04009A842EAD00020BDE8F08109
:102A90004FF40061016200BF206850E8000F216818
:102AA00020F4D07041E80002BAB3206850E8000F6B
:102AB000216820F4D07041E8000272B3206850E829
:102AC000000F216820F4D07041E800022AB320688A
:102AD00050E8000F216820F4D07041E80002002A7D
:102AE000DAD11AE0206850E8020F216820F00100D6
:102AF00041E80202DAB1206850E8020F216820F0B4
:102B0000010041E8020292B1206850E8020F2168FA
:102B100020F0010041E802024AB1206850E8020FAB
:102B2000216820F0010041E80202002ADAD12020C9
:102B3000A067E06704F1800087E70000FEE700007F
:102B40002DE9F04F97B0FEF7ADF806A80430242128
:102B5000FDF702FC4FF40070FEF744F920B1EFF3EB
:102B6000108072B6FEE700BF1020602106900120A1
:102B70000E9102210C90CDE9101012902820139094
:102B800007200024CDE9140106A80D941691FEF744
:102B900035FD28B1EFF3108072B600BFFEE700BF2D
:102BA0000F2001904FF0030A01A80421CDE902A4EF
:102BB000CDE90444FEF756FB20B1EFF3108072B666
:102BC000FEE700BF002641F24C000A96C4F2020064
:102BD000016840F6004541F0100101600168C4F64B
:102BE000000501F0100101910199016805F5806768
:102BF00041F0040101600168002201F0040101912B
:102C00000199016841F001010160016801F00101D1
:102C100001910199016841F002010160016801F030
:102C2000020101910199016841F008010160006809
:102C30004FF48A7100F00800019001983846FDF7C2
:102C40002BFD4FF0904048F204110022FDF724FDC7
:102C5000A5F5006840464FF214010022FDF71CFD67
:102C6000284641F281010022FDF716FD28464FF467
:102C7000005101224FF400544FF0010BFDF70CFD01
:102C8000A5F5806948464FF410710022FDF704FD58
:102C9000384601210122FDF7FFFC40F2151006AD78
:102CA000CDE9060B38462946CDE90866FDF70CFC50
:102CB0006A2006904FF48810CDE907063846294669
:102CC000FDF702FC4FF40410CDE9070648462946FB
:102CD0000694FDF7F9FB3F2006900B20CDE907068F
:102CE00048462946FDF7F0FB0320CDF818A04FF029
:102CF000020A09904FF0080B4FF090402946CDE9A9
:102D000007A6CDF828B0FDF7DFFB48F204100690C7
:102D100001244FF090402946CDE907460996FDF77A
:102D2000D3FB4FF090402946CDE906BACDE90866BD
:102D30000A940124FDF7C8FB102006900B20CDE972
:102D400007064FF090402946FDF7BEFBE020CDE995
:102D5000060A05204FF0030B0A904FF090402946D9
:102D60000896CDF824B0FDF7AFFB4FF48810CDE9FD
:102D70000706404629460694FDF7A6FB0B20CDE941
:102D8000070640462946CDF818A0FDF79DFB4FF2F7
:102D9000140006A951C1404629460996FDF794FB47
:102DA0004FF42070CDE9060A06200A9038462946DD
:102DB000CDE90866FDF788FB4FF47C40CDE9060AB3
:102DC0000A200A9038462946CDE9086BFDF77CFBBE
:102DD0004FF440600690122007A981E841080420C2
:102DE0000A9040462946FDF76FFB4FF4407040F6CD
:102DF0000047CDE9060A0720C4F600070A903846C6
:102E00002946CDE9086B4FF00308FDF75DFB4CF652
:102E1000044006904FF488100790384629464FF436
:102E2000881B0896FDF750FB43F2810006900124B1
:102E300038462946CDE907460996FDF745FB4FF48C
:102E40001070CDE90604484629460124CDE90866FC
:102E5000FDF73AFB4FF4C070CDE9060B4846294612
:102E60000896FDF731FB4FF4E050CDE9060A062045
:102E70000A9048462946CDE90868FDF725FB05205C
:102E80000A9038462946CDE906AACDE90868FDF73B
:102E90001BFB7820CDE9060A07200A903846294610
:102EA00045F20045CDE90868C4F20005FDF70CFBCA
:102EB000172000210022FDF759FF1720FDF742FFE0
:102EC000282000210022FDF751FF2820FDF73AFFBE
:102ED00040F2A00049F6EC41C2F20000C1F29001BC
:102EE000C0E90051C0E90264C0E90466C0E90666B1
:102EF0000662FDF727FC28B1EFF3108072B600BF21
:102F0000FEE700BF40F2A000C2F200000021FDF782
:102F1000CFFB28B1EFF3108072B600BFFEE700BF11
:102F200040F2A000C2F2000000210024FDF7E6FB01
:102F300020B1EFF3108072B6FEE700BF40F2F4005C
:102F400005F56441C2F200000C234FF4E13280E841
:102F50001600C0E90344C0E90534C0E907444462EF
:102F6000FEF71CFF20B1EFF3108072B6FEE700BF42
:102F70004EF66020FDF786FA4BF22110ADF81800EE
:102F800040F2A0004FF4FA77C2F2000006AAC42172
:102F900002230097FDF72CFD41F28830FDF772FA0D
:102FA000FFF756FA40F27001C2F200010A7B0020DE
:102FB0000A8017B000F000B830BCBDE8C08F000038
:102FC00021F0004201F00043A2F16052B2F5801FEF
:102FD00028BFD2F17F6C0BD95FEA001C43EAC20222
:102FE00042EB507018BF704728BF20F001007047B7
:102FF000B2F5801FBCBF184670474FEA410C1CF564
:10300000001F02D2084600F0C6BA70B500F074F98D
:1030100000000089FFF7F6BF4FF00040A0F58000E8
:103020007047000010B591EA030F48BF83F00043DA
:1030300000F1BE81841A71EB030C05D2121943EB27
:103040000C03001B61EB0C014FEA1154A4EB135C61
:10305000DFF81CE11EEA430F18BF9EEA445F00F050
:10306000748021EA045123EA0E0343F48013DCF157
:10307000200E32D322FA0CFE10EB0E0023FA0CFEC7
:1030800041EB0E01CCF1200E03FA0EFE10EB0E0008
:10309000CCF1200E51F10001B1F5801F32D201EBCD
:1030A000045112FA0EF2BDE8104058BF7047401CA0
:1030B00038BF5FEA420218BF7047002814BF20F0F3
:1030C000010041F100014FEA410313F5001F38BF31
:1030D0007047A1F1C04100F05DB9012A43EB030242
:1030E000ACF1200CDCF11F0E32BF4FF0000E23FAC2
:1030F0000CF310EB030041EB0451B4EB115FD0D0A3
:10310000A1EB045101F58011490801EB04515FEA7C
:1031100030000ED350F1000038BF12FA0EFE08D175
:10312000BDE81040C9E7401C38BF5FEA4202CAD17F
:10313000C3E7BDE810404FEA410313F5001F38BF55
:103140007047A1F1C04100F025B99EEA445F08D064
:1031500011EA5E0FBDE8104004BF01F000410020FD
:103160007047BDE8104070B500F0C6F864FBBE3E85
:103170000000E0FF10F0004248BF4042B0FA80F388
:1031800010FA03F10AD0C3F11D0303F5806302EBCB
:1031900003524FEA415002EBD12170474FF000003B
:1031A0007047000070B5DFF848C11CEA111E1EBF51
:1031B0001CEA13159EEA0C0F95EA0C0F00F06F80C5
:1031C00081EA03044EEAD47EAE4421EA4C1123EA9C
:1031D0004C1341F4801143F48013AEF17F7EA1FBC8
:1031E000024CA0FB0365361955EB0C05A1FB034C03
:1031F0004CF10003A0FB021C16EB0C06654153F1D9
:103200000003094218BF46F0010613F4007F0BD1FA
:103210004FEA03314FEA053041EA155140EA1650B2
:1032200034036FF003020AE04FEAC3214FEAC520DE
:1032300041EA555140EA5650F4026FF0020202EBA7
:103240002E4201EB025585EACE710AD05FEA440CAA
:1032500018BF24F0004450F1000041F1000120EAC1
:10326000D47040F2FE7C624500D270BDA84214BF0B
:103270004FF080444FF04044002E08BF0024BEF1C0
:10328000806FA8BFA1F1C041BDE8704080F282808C
:1032900001F1C04101F000414FF0000070470CEA1D
:1032A00013159EEA0C0F18BF95EA0C0F06D081EAA1
:1032B000030E4FF000000EF0004170BD00F01CF84E
:1032C0008900013E00F007B800F009B84FEA430C4E
:1032D0005FEA5C5C08D081EA030100F05BB84FEA6A
:1032E000410C5FEA5C5CF6D102494FF00000704788
:1032F0000000FF070000F87F0EF1020E2EF0030E13
:103300005EF8046B364205D4012A43EB030515F53C
:10331000001F12D8012841EB010C1CF5001F0CD82E
:103320000ED14FEAD17C0CEB4C0C0CF1020C15F5D4
:10333000001F08BF4CEBD37C04E04FF0080C01E009
:103340004FEAD37C0CEB4C0526FA05F606F007068F
:10335000B6F1040C06D20EEB860CBDE870404CF0C2
:10336000010C6047DFE80CF0090B02024FF000414E
:10337000A1F500214FF0000070BD1946104601284C
:1033800051EB010418BFD4F5001484BF002001F0F4
:10339000004170BD0808A0F500114FEA31017047E7
:1033A00010B591EA030F48BF83F000433FF542AEEA
:1033B000841A71EB030C07D28CF0004C121943EB0A
:1033C0000C03001B61EB0C014FEA1154A4EB135CDE
:1033D000DFF8A4E11EEA430F18BF9EEA445F00F045
:1033E000B48021EA045123EA6E035242C3EB6E0318
:1033F00038BF5B1EDCF1200E25D322FA0CFE10EB49
:103400000E0043FA0CFE41EB0E01CCF1200E03FA44
:103410000EFE10EB0E00CCF1200E51F1000129D46C
:1034200001EB045112FA0EF2BDE8104058BF70478C
:10343000401C1CBFB2F1004F704700280CBF491C54
:1034400020F00100704712EB020E43EB030218BF9D
:103450004FF0010E4EEA4202ACF1200CDCF11E0EE0
:1034600056D943FA0CFE10EB0E00CCF11E0E51F1B2
:10347000FF31D5D50EF1010E12FA0EFE404141EB9F
:10348000010101EB445C5FEA5C5C10D901EB045183
:1034900010EBDE7038BFBEF1004FBDE8104018BF22
:1034A000704700280CBF491C20F00100704734D23F
:1034B0004FEAD42C24F4006411F500111BD0B1FAAA
:1034C00081F20B3AA41AA41ED2F12003914030FAE3
:1034D00003F31943904001EBCC7101EB0451002C34
:1034E000BDE81040A8BF704701F1C04101F00041A4
:1034F0004FF000007047B0FA80F310FA03F102D1E8
:10350000BDE810407047E41A173C4805C90AE2E7D5
:1035100001EB0451BDE81040704749104FEA3000FC
:1035200001EB0451BDE8104002E04FF0000170478C
:103530004A0008BF0042F8D0B2F5001F28BF70470C
:1035400001F000414FF0000070479EEA445F07D051
:1035500011EA5E0FBDE8104004BF00210020704753
:10356000BDE8104070B5FFF7C7FE00BF40DFF63E74
:10357000104683F0004170470000E0FFF1EE100AB2
:103580004FF6FF71C0F2C03120EA010040F04070F8
:10359000E1EE100A7047FF2141EAD050C0057047A4
:1035A00000000000000000000102030406070809F3
:1035B0000000000001020304A0860100400D03008A
:1035C000801A060000350C0040420F0080841E0067
:1035D00000093D0000127A000024F40000366E015C
:1035E0000048E801006CDC0200000000040000005C
:1035F000020000000800000018360008000000204B
:1036000010000000C4010008283600081000002047
:1036100070070000E0010008010000001000000039
:0836200000093D00000000005C
:040000050800018965
:00000001FF
